:0E0000000C9469000C9400000C9400000C9409
:10000E0000000C9400000C9400000C9400000C9462
:10001E0096000C9400000C9400000C9400000C94BC
:10002E0000000C9400000C9400000C9400000C9442
:10003E0000000C9400000C9400000C9400000C9432
:10004E0000000C9400001027E80364000A00010071
:10005E000010000110000100000000000000000070
:10006E000000FEFDFBF70100020003000400050086
:10007E000600070008000900215345540000000047
:10008E005345540025693A25693A256920414C4D5E
:10009E003A257300414C41524D3A2025693A256963
:1000AE00000080C00A0004006600040060027000B8
:1000BE001100640274000B00940286000200A80274
:1000CE00B0000000F894EE27ECBBF1E0FBBFEBBFF5
:1000DE00E5BF8DE0A2E0BB27ED938A95E9F780E0BE
:1000EE0098E0A0E6ED930197E9F7E2EBF0E0859159
:1000FE009591009761F0A591B59105901590BF016E
:10010E00F00105900D920197E1F7FB01F0CFEFE5BD
:10011E00EDBFE8E0EEBFC0E6D2E00C94D400AA93A7
:10012E00BA93EA93FA93EFB7EA93A091A402B0912F
:10013E00A502119759F5ECE3F0E04E165F061CF49C
:10014E00F20131962F01ECE3F0E0E415F50541F4F0
:10015E006E167F061CF4F30131963F01442455249C
:10016E00ECE3F0E0E615F70551F4E8E1F0E08E1669
:10017E009F061CF4F40131964F0166247724E8E1C2
:10018E00F0E0E815F90511F488249924E991EFBF00
:10019E00F991E991B991A9911895E0E0E4BBEFEFDF
:1001AE00E5BBE1BBE7BBC59AC49AC098A0E10E942B
:1001BE007C02E0E0EFBDEDE0EEBDEFE2F3E0FBBD73
:1001CE00EABDE0E1E9BF789404D0B6D0F3D0FCCF1D
:1001DE00FFCF2697EFEFE883E983EA83EB83E0E036
:1001EE00EC83ED83EC83ED83AC81BD81149734F504
:1001FE00EC81FD81E05AFD4FE081E2BB989906C08B
:10020E00989BFECFE0E0EA83EB8318C0999907C074
:10021E00999BFECFE1E0F0E0EA83FB830FC09A9951
:10022E0007C09A9BFECFE2E0F0E0EA83FB8306C0B4
:10023E00EC81FD813196EC83FD83D6CFAA81BB8103
:10024E00AF3FEFEFBE0709F472C0EC81FD81A3E072
:10025E00B0E00E943705AA81BB81EA0FFB1FE8833D
:10026E00F983E0918002F091810260918202709197
:10027E008302AAE0B0E080E090E00E9417057F9331
:10028E006F93FF93EF93E881F981A4E6B2E0EE0F4E
:10029E00FF1FAE0FBF1F0E949405AF91BF918F91AC
:1002AE009F910E940A050E94FA04E0938002F09347
:1002BE0081026093820270938302A881B98119979B
:1002CE00C9F40E946B043F010E9499044F01ECE3B4
:1002DE00F0E0E615F7053CF4D3010E9474053F01EA
:1002EE00F40131964F01E1E0F0E0E093A402F093C7
:1002FE00A502BCD0A881B9811B97C9F40E946B04DA
:10030E005F010E9499046F01ECE3F0E0EA15FB0532
:10031E003CF4D5010E9474055F01F60131966F0120
:10032E00E1E0F0E0E093A602F093A7029FD0E0E0B8
:10033E002696089526964DCFE4E8F2E0FA93EA93D6
:10034E00E2E9F0E0FA93EA93F4010E94A804F301C3
:10035E000E94A804F2010E94A804E091A602F09166
:10036E00A7020E940305EC56FD4F662777270E94D1
:10037E009C0580E10E941E046496E0E0EA93A0E0F2
:10038E000E94AD04E4E8F2E0FA93EA93E2EAF0E0C8
:10039E00FA93EA93F6010E94A804F5010E94A804BC
:1003AE0088E00E941E042C96E0E0EA93A1E00E94F1
:1003BE00AD040895C814D90419F4A614B70409F0AD
:1003CE0009C0E091A602F091A702309711F0C69AEB
:1003DE00C09A02C0C698C098B59B14C0B49914C0F8
:1003EE00A091A602B091A702119731F4C814D904B6
:1003FE0019F4A614B70409F007C0B49BFECFF5019B
:10040E0032965F01C698C0980895AA93EBB3EF7029
:10041E00AE2FE881E07FEA2BEBBB82E08A95F1F705
:10042E00DA9A82E08A95F1F7DA9882E08A95F1F706
:10043E0088C0AA93A881E9DFE881E295E883A881C4
:10044E00E4DF81E18A95F1F77CC0AA93E881F0E0C0
:10045E00E855FD4FE081A981AE0FEBDFE981E09316
:10046E00AC02E881E093AD0222960895A2E00E94CC
:10047E00B304ACE0DEDFA1E00E94B304E0E0E09361
:10048E00AD02E093AC020895AA93A881AA3031F090
:10049E00E091AE02A091AC02AE1760F0E0E0EA93FC
:1004AE00A091AD02AF5FA093AD02CFDFA881AA30BD
:1004BE0009F447C0E091AC02EF5FE093AC02D89A2A
:1004CE00A881B7DFD8983DC0BA93AA931A93A98191
:1004DE00BA81ED91A983BA831E2FE03019F0A12FB6
:1004EE00D3DFF5CF188123960895AA93EAB3E06F70
:1004FE00EABBD29AD09AD19ADA98D898D998E8814C
:10050E00E093AE02E058E093AA02E881E054E09353
:10051E00AB02A4E1B0E00E94EC040E94B9040E9478
:10052E00B9040E94B904A0E270DF81E28A95F1F766
:10053E00A8E27FDFA4E07DDFA5E87BDFA6E079DF20
:10054E0095DF21960895BA93AA931A930A93AA81D6
:10055E00BB8112960E949405309759F1AA81BB81F6
:10056E0014960E9494058F01309761F00230E0E0FE
:10057E001E0798F0F80131978F01AA81BB8114965E
:10058E00ED93FC93AA81BB811296ED91FD9131966C
:10059E00FE93EE933197AC81A083AA81BB810E941A
:1005AE009405FF232AF0ED91FD913196FE93EE9383
:1005BE0006C0AA81BB81EFEFFFEFED93FC9319818B
:1005CE00088125960895BA93AA9326970E94A105AD
:1005DE0010E0AC85BD85E0E0F0E0ED93FC93EA8998
:1005EE00FB893196EA8BFB8B3197E4912E2FE0300D
:1005FE0009F415C1E12FE03039F4253211F411E080
:10060E0002C00E94C0040AC1E130A9F4253219F4D7
:10061E000E94C00402C112E040E000E02D3211F44D
:10062E0001E0FCC02B3211F44BE2F8C0203211F481
:10063E0040E2F4C002C0E23039F450E013E020335F
:10064E0011F40068EBC003C0E33009F0E7C02033BB
:10065E0010F02A3308F007C0AAE05A9F502DE22F5F
:10066E00E0535E0FDBC0E22FE33649F40E94C7046D
:10067E00E889F989A481AA930E94CD04CEC0E337FC
:10068E0041F40E94C7040E94D3040E9452041E2FFC
:10069E000AC0E03761F40E94C7040E94D3040E948E
:1006AE005E041E2F086002600F7730E034C0E4361F
:1006BE0011F0E93611F4046002C0E53731F4E4E5D7
:1006CE00F0E0EE83FF8315E00CC0E83511F408600E
:1006DE0003C0E83709F0A1C0EEE5F0E0EE83FF833A
:1006EE0014E002FF14C00E94C7040E94DD04AB8513
:1006FE00AA233AF4EA85FB850E94FF04EA87FB876A
:10070E004DE2403011F01F5F01C00B7F04C00E940C
:10071E00C7040E94DD0400FD11C0151778F407FF11
:10072E0008C002FF04C00B7F242F115001C020E32C
:10073E0001C020E20E94C0045150EFCF312F01FFC3
:10074E0017C03030A1F003FF06C0EE81FF81259166
:10075E00EE83FF8305C0AE81BF812D91AE83BF8333
:10076E000E94C004503009F051503150EACF4BC0B6
:10077E0020E3EE81FF810E949805E887F987EE81DC
:10078E00FF813296EE83FF83E885F985AA85BB85C6
:10079E00AE17BF0750F02F5FA885B985EA85FB8598
:1007AE00EA1BFB0BEA87FB87EFCF2A3328F003FF08
:1007BE0002C0295F01C0295D04FD1AC0213320F457
:1007CE00A885B985119709F409C0531710F000FFD9
:1007DE0001C013C020E207FF0BC020E3006102FF3F
:1007EE0007C00B7F4A930E94CD04503009F0515040
:1007FE000E94C004503009F051503150A885B9857F
:10080E00129708F0B5CF00FF08C0503031F05150AC
:10081E00E0E2EA930E94CD04F8CF10E0E0CEAC8582
:10082E00BD850E9494050E94A80564960895FF92C6
:10083E00F82E26970E94A3050E94E504309719F41E
:10084E00EFEFFFEF23C0DE0116960E94F6048D0136
:10085E000E94E504EE83FF83E0E0E887E987DE018E
:10086E001A960E94F6040E949405FA93EA931A933C
:10087E000A93EAEAF2E0FA93EA93DE011A96A3DE0D
:10088E009F01AE81BF81E0E0EC93F9010E94AA05C1
:10089E002A96FF900895BA93AA93A991B991EE273B
:1008AE00FF276D91662311F03196FBCF0895BA9311
:1008BE00AA93AA27BB27E991F9910590002011F080
:1008CE001196FBCFFD010895A0918002B091810297
:1008DE008091820290918302EAE0F0E060E070E0A5
:1008EE000E944F05E0937C02F0937D0260937E029E
:1008FE0070937F02E0E0E0938002E0938102E09348
:10090E008202E0938302A0917C02B0917D028091DD
:10091E007E0290917F02E4E6F0E060E070E00E94DB
:10092E0082050895A0917C02B0917D0280917E0295
:10093E0090917F02E4E6F0E060E070E00E944F05E7
:10094E0008950E940A050E949C0508950E942C029B
:10095E00A4E8B2E00C946B020E942002A3E0B0E087
:10096E000C94EC04A0E30E940C0281E28A95F1F74C
:10097E0008952A93AD85BE85EF85F889099508956A
:10098E00E889F9893497E88BF98B0895AD85BE8592
:10099E00EF85F88909950895A889B98914960E945A
:1009AE009405EE83FF83AE81BF810895A889B9892E
:1009BE0014960E949405EA87FB870895DE011C9623
:1009CE000E94F6040E9494050895109639F08AEF5D
:1009DE0090E00197F1F7A8951197C9F708950024B3
:1009EE00AF0DB01D0895EA0FFB1F681F791F089504
:1009FE00F195E195F0400895EE0FFF1FEE0FFF1FEA
:100A0E00EE0FFF1F08956F2F660F660B762F08955A
:100A1E00FA9FF02DEB9FF00DEA9FE02DF10D08955A
:100A2E007A9F702D6B9F700DF89F700DE99F700D62
:100A3E006A9F602D710DFB9F600D711DE89F600D0B
:100A4E00711D8827FA9FF02D610D781FEB9FF00D19
:100A5E00611D781FEA9FE02DF10D681F781F089524
:100A6E004ED0D6DF0EF4C4DF08950024112490E199
:100A7E00AA0FBB1F001C111C0E1A1F0A18F40E0E13
:100A8E001F1E01C0A1609A9599F7FD01D00108952E
:100A9E003F934F935F93002411244427552730E250
:100AAE00AA0FBB1F881F991F001C111C441F551F26
:100ABE000E1A1F0A460B570B28F40E0E1F1E461F4A
:100ACE00571F01C0A1603A9559F7FD01BC01D00135
:100ADE00CA015F914F913F910895E894B7FF04C00A
:100AEE00A095B09511966894F7FD82DFBEDFFD01EB
:100AFE000EF47EDF0895CCDFFD01BC010895E8946D
:100B0E00F7FF02C075DF6894B7FF06C0A095B095D9
:100B1E00119600F8039400FA0895ED91FC91119747
:100B2E0008950590F491E02D08957A936A93FA93BF
:100B3E00EA9308955A934A933A932A931A930A93EF
:100B4E0008955D814C813B812A8119810881089528
:00000001FF
